{
  "contractName": "Contract1",
  "abi": [
    {
      "constant": true,
      "inputs": [],
      "name": "getUserData",
      "outputs": [
        {
          "internalType": "string[]",
          "name": "",
          "type": "string[]"
        }
      ],
      "payable": false,
      "stateMutability": "view",
      "type": "function"
    },
    {
      "constant": true,
      "inputs": [],
      "name": "getUserN",
      "outputs": [
        {
          "internalType": "string[]",
          "name": "",
          "type": "string[]"
        }
      ],
      "payable": false,
      "stateMutability": "view",
      "type": "function"
    },
    {
      "constant": false,
      "inputs": [
        {
          "internalType": "string",
          "name": "newData",
          "type": "string"
        },
        {
          "internalType": "string",
          "name": "newUser",
          "type": "string"
        }
      ],
      "name": "setData",
      "outputs": [],
      "payable": false,
      "stateMutability": "nonpayable",
      "type": "function"
    }
  ],
  "bytecode": "0x608060405234801561001057600080fd5b5061067f806100206000396000f3fe608060405234801561001057600080fd5b50600436106100415760003560e01c806322e8c87d146100465780638ca3c553146100645780638fa1092714610080575b600080fd5b61004e61009e565b60405161005b9190610519565b60405180910390f35b61007e600480360361007991908101906103eb565b610187565b005b610088610209565b6040516100959190610519565b60405180910390f35b60606000805480602002602001604051908101604052809291908181526020016000905b8282101561017e578382906000526020600020018054600181600116156101000203166002900480601f01602080910402602001604051908101604052809291908181526020018280546001816001161561010002031660029004801561016a5780601f1061013f5761010080835404028352916020019161016a565b820191906000526020600020905b81548152906001019060200180831161014d57829003601f168201915b5050505050815260200190600101906100c2565b50505050905090565b60008290806001815401808255809150509060018203906000526020600020016000909192909190915090805190602001906101c49291906102f2565b505060018190806001815401808255809150509060018203906000526020600020016000909192909190915090805190602001906102039291906102f2565b50505050565b60606001805480602002602001604051908101604052809291908181526020016000905b828210156102e9578382906000526020600020018054600181600116156101000203166002900480601f0160208091040260200160405190810160405280929190818152602001828054600181600116156101000203166002900480156102d55780601f106102aa576101008083540402835291602001916102d5565b820191906000526020600020905b8154815290600101906020018083116102b857829003601f168201915b50505050508152602001906001019061022d565b50505050905090565b828054600181600116156101000203166002900490600052602060002090601f016020900481019282601f1061033357805160ff1916838001178555610361565b82800160010185558215610361579182015b82811115610360578251825591602001919060010190610345565b5b50905061036e9190610372565b5090565b61039491905b80821115610390576000816000905550600101610378565b5090565b90565b600082601f8301126103a857600080fd5b81356103bb6103b682610568565b61053b565b915080825260208301602083018583830111156103d757600080fd5b6103e28382846105e9565b50505092915050565b600080604083850312156103fe57600080fd5b600083013567ffffffffffffffff81111561041857600080fd5b61042485828601610397565b925050602083013567ffffffffffffffff81111561044157600080fd5b61044d85828601610397565b9150509250929050565b600061046383836104e0565b905092915050565b6000610476826105a4565b61048081856105c7565b93508360208202850161049285610594565b8060005b858110156104ce57848403895281516104af8582610457565b94506104ba836105ba565b925060208a01995050600181019050610496565b50829750879550505050505092915050565b60006104eb826105af565b6104f581856105d8565b93506105058185602086016105f8565b61050e8161062b565b840191505092915050565b60006020820190508181036000830152610533818461046b565b905092915050565b6000604051905081810181811067ffffffffffffffff8211171561055e57600080fd5b8060405250919050565b600067ffffffffffffffff82111561057f57600080fd5b601f19601f8301169050602081019050919050565b6000819050602082019050919050565b600081519050919050565b600081519050919050565b6000602082019050919050565b600082825260208201905092915050565b600082825260208201905092915050565b82818337600083830152505050565b60005b838110156106165780820151818401526020810190506105fb565b83811115610625576000848401525b50505050565b6000601f19601f830116905091905056fea365627a7a7231582074612b1e9df718f26add8787d19adaf0d47cbbc90790dd52115ebf4ff586491c6c6578706572696d656e74616cf564736f6c63430005100040",
  "source": "pragma solidity ^0.5.16;\r\npragma experimental ABIEncoderV2;       //needed this for the string array\r\n\r\ncontract Contract1\r\n{\r\n    string[] private data;\r\n    string[] private username;\r\n\r\n    function getUserData() public view returns (string[] memory) \r\n    {\r\n        return data;        //returning the corresponding user's data\r\n    }\r\n\r\n    function getUserN() public view returns (string [] memory)\r\n    {\r\n        return username;        //returning the corresponding user's name\r\n    }\r\n\r\n    function setData(string memory newData, string memory newUser) public\r\n    {\r\n        data.push(newData);       //pushing data into the array\r\n        username.push(newUser);       //pushing corresponding user into the array\r\n    }\r\n}\r\n\r\n\r\n//tried it here\r\n//https://remix.ethereum.org/#optimize=false&runs=200&evmVersion=null&version=soljson-v0.5.17+commit.d19bba13.js\r\n",
  "sourcePath": "E:/Blockchain/Private/Dapp/contracts/Contract1.sol",
  "compiler": {
    "name": "solc",
    "version": "0.5.16+commit.9c3226ce.Emscripten.clang"
  },
  "schemaVersion": "3.3.3",
  "updatedAt": "2021-02-01T12:52:30.917Z",
  "networkType": "ethereum",
  "devdoc": {
    "methods": {}
  },
  "userdoc": {
    "methods": {}
  }
}